:020000040800F2
:10000000FF1F002061010008FB0900086D0A0008BD
:1000100000000000000000000000000000000000E0
:10002000000000000000000000000000FD090008C2
:100030000000000000000000FF090008010A00089D
:10004000690A000800000000690A0008690A00083F
:10005000690A0008690A0008690A0008690A0008B4
:1000600000000000690A0008690A0008690A00081F
:10007000690A0008690A0008690A0008000000000F
:10008000690A0008690A000800000000690A0008FF
:10009000690A0008690A0008690A0008690A000874
:1000A000690A0008690A0008690A0008690A000864
:1000B000690A0008000000000000000000000000C5
:1000C000002934D00123002210B488422CD301240B
:1000D0002407A14204D2814202D209011B01F8E7A0
:1000E000E400A14204D2814202D249005B00F8E759
:1000F000884201D3401A1A434C08A04202D3001B85
:100100005C0822438C08A04202D3001B9C082243B7
:10011000CC08A04202D3001BDC082243002803D0F5
:100120001B0901D00909E3E7101C10BC7047002827
:1001300001D00020C04307B4024802A14018029039
:1001400003BDC046190000000029F0D003B5FFF739
:10015000B9FF0EBC4243891A1847C0467047C046D3
:100160000C488546002103E00B4B5B58435004319B
:100170000A480B4B42189A42F6D30A4A02E000237F
:1001800013600432084B9A42F9D300F03DFC00F0B2
:10019000EDFBFEE7FF1F00201C0B00080000002005
:1001A00004000020040000200800002010B5041CFA
:1001B00000F028F9FA218900FFF782FF00F058F8D3
:1001C0000120211C4042002200F020F8002010BD38
:1001D0001021064A08B5136803200B431360FFF78C
:1001E000E5FF00F009FC002008BDC04600200240E9
:1001F000024A1368013313607047C04604000020B0
:10020000014B18687047C0460400002070B5890192
:10021000002815DA0F23C0B20340083B124A9B089E
:1002200003249B009B18FF222040A040141C844004
:10023000DD691140A54381402A1C0A43DA6112E0BE
:1002400084080A4B0326A400E418FF233040B04082
:100250001E1CC0258640AD0062591940B243814042
:10026000131C0B43635170BD00ED00E000E100E0A2
:10027000094A431E012093420DD8C020074A08496D
:1002800053600B6A00061B021B0A03430B6200202B
:100290000723906013607047FFFFFF0010E000E04D
:1002A00000ED00E0F0B50B6885B0039300230291E8
:1002B000039ADA4000D193E001229A40039C144053
:1002C000019400D18AE0029A10215268161C8E43D4
:1002D000022E0ED107250F211D40AD00A940DC08DC
:1002E000A4000419276A8F4302990969A9400F43A2
:1002F000276203245F00BC40E4430568013E2540BB
:10030000AC4603251540BD4061460D430560012EF6
:1003100010D802998668CD682640BD403543856077
:1003200001259D404668AE43102515402D099D408E
:1003300035434560C56802992C408D688021BD40D9
:1003400049052C43C4600A4248D00121254D0327AA
:10035000AC691F400C43AC610F2423499D08AD00DC
:10036000BF006D18BC409021AE68C905A6430024AB
:1003700088420CD01D490124884208D01C4902241F
:10038000884204D01B490324884200D00524BC4085
:100390003443AC600199184CCE432568D10301D495
:1003A000354001E001990D4325606568910301D452
:1003B000354001E001990D436560A568D10201D483
:1003C000354001E001990D43A560E568920201D432
:1003D000354002E0019A2A43151CE560013367E7C6
:1003E00005B0F0BD001002400000014000040048CC
:1003F00000080048000C00480004014043695940CF
:100400004161704708B500F08BFA054B054A5B68FF
:100410001B061B0FD35CD840034B186008BDC046B9
:1004200000100240EC0A000800000020F8B5036844
:10043000041CDB0703D423689B0745D489E00C2305
:10044000B04D6A681A40042A06D06A681340082B27
:100450000AD16B68DB0307D52B689B03EBD5636878
:10046000012BE8D0012085E10023A74E3370FFF770
:10047000C7FE071C2B689B0307D5FFF7C1FEA34BE4
:10048000C01B9842F6D9032074E123793370636866
:10049000002B0CD0FFF7B4FE061C2B689B03CAD4BC
:1004A000FFF7AEFE994A831B9342F6D9EBE7FFF7BD
:1004B000A7FE061C2B689B03BDD5FFF7A1FE934A40
:1004C000831B9342F6D9DEE70C238E4D6A681A42ED
:1004D00006D06A681340082B10D16B68DB030DD47B
:1004E0002B689B0702D5E368012BBBD1F8212B6851
:1004F00022698B43D20013432B602AE0E368012278
:10050000002B17D02B6813432B60FFF779FE061CD6
:100510002B687C499B0705D4FFF772FE831B642B75
:10052000F6D9B0E7F8200B6822698343D200134361
:100530000B600EE02B6893432B60FFF761FE061CF7
:100540002B689B0705D5FFF75BFE831B642BF7D950
:1005500099E723681B0703D423685B074ED522E085
:10056000236A0122674D002B0ED06B6A13436B6226
:10057000FFF746FE061C6B6A9B07EDD4FFF740FEB3
:10058000831B642BF7D97EE76B6A93436B62FFF79B
:1005900037FE061C6B6A9B07DED5FFF731FE831B17
:1005A000642BF7D96FE78022564D5205EB69584E00
:1005B00013438022EB613368520013433360FFF72B
:1005C0001FFE071C3368DB051CD505222B6A9343ED
:1005D0002B62FFF715FE061C2B6A4A499B0717D4AE
:1005E00005200B6AA268834313430B62012A1DD1C5
:1005F000FFF706FE061C2B6A9B0710D52368DB0657
:1006000021D460E0FFF7FCFDC01B6428DAD93AE78B
:10061000FFF7F6FD3D4A831B9342DDD933E7FFF731
:10062000EFFD3A4A831B9342E5D92CE7FFF7E8FD3B
:10063000061C2B6A9B07E1D5FFF7E2FD334A831BBB
:100640009342F6D91FE762692E4D0423012A1AD17D
:10065000696B0B436B636B6B1A436A63FFF7D0FDE7
:10066000061C6B6B27499B0705D4FFF7C9FD831B4D
:10067000642BF6D907E7F8204B6BA2698343D200BD
:1006800013434B631FE005320AD1F8216A6B9A438A
:100690006A636B6BA2698B43D20013436B6312E0F6
:1006A0006A6B134301226B636B6B93436B63FFF7BE
:1006B000A7FD061C6B6B9B0705D5FFF7A1FD831BF0
:1006C000642BF7D9DFE6626A002A01D1002051E0ED
:1006D0000C230C4D012069680B40082B4AD00D4BB0
:1006E000022A38D12A6813402B60FFF789FD061CC7
:1006F0002A68044B92010FD5FFF782FD801B642806
:10070000F6D9C0E600100240021002408813000033
:1007100000700040FFFFFFFE0F21DA6A8A43E16AA2
:100720000A43DA62216BA06A5A68084312490A40F8
:10073000802102435A601A6849040A431A60FFF78D
:100740005FFD041C2B689B01C0D4FFF759FD031B00
:10075000642BF7D997E62A6813402B60FFF750FD0A
:10076000041C2B689B01B1D5FFF74AFD031B642BCA
:10077000F7D988E6F8BDC046FFFFC2FF0123F7B5F1
:10078000634A0E1C1168041C1940171C8E4261D963
:10079000116899433143116012681340B34201D08C
:1007A0000120B3E00268930706D5F02059494B6851
:1007B0008343A06803434B60D3070BD423685B07D4
:1007C00000D49FE05349544B4A681340E2681343F6
:1007D0004B6097E04F4D63682A68012B02D192036A
:1007E00007D4DDE7022B02D1920102D4D8E79207A9
:1007F000D6D503216A688A4313436B60FFF700FD77
:100800006368061C012B0CD10C236A681340042B6F
:10081000D4D0FFF7F5FC414B801B9842F4D903205C
:1008200074E0022B11D10C236A681340082BC5D049
:10083000FFF7E6FC394B801B9842F4D9EFE7FFF74E
:10084000DFFC364B801B9842E9D80C236A681A42B9
:10085000F5D1B3E70268930706D5F0202D494B6820
:100860008343A06803434B60D30709D401223B684C
:10087000934333433B603B681A40B24290D19DE7BB
:10088000244D63682A68012B02D1920307D487E7BD
:10089000022B02D1920102D482E7920780D5032174
:1008A0006A688A4313436B60FFF7AAFC6368019090
:1008B000012B0CD10C236A681340042BD6D0FFF710
:1008C0009FFC019BC01A154B9842F3D9A7E7022B56
:1008D00013D10C236A681340082BC7D0FFF790FC94
:1008E000019BC01A0D4B9842F3D998E7FFF788FC9B
:1008F000019BC01A094B984291D80C236A681A428E
:10090000F4D1B3E70320FFF751FC0020FEBDC04641
:100910000020024000100240FFF8FFFF8813000093
:100920000C220D4910B54B681A40082A11D19A02C1
:100930000A48120F845C0F22C96A0A400849895C80
:10094000DB0303D50748FFF7BBFB00E00648604325
:1009500000E0044810BDC046001002400C0B000827
:10096000FC0A000800127A0000093D0010B592B0A0
:10097000FFF72EFC002305930F931093802302248E
:100980005B0305A80E941193FFF750FD002801D0DA
:1009900000BEFEE7072303900490012101A8019304
:1009A0000294FFF7EBFE002801D000BEFEE7802195
:1009B0000E4A090353690E480B435361C0239B0041
:1009C0000593012305A90693FFF76CFC094B013B36
:1009D000002BFCD1802106488900FFF70FFD802104
:1009E00003484900FFF70AFDF0E7C0460010024047
:1009F00000080048FFFF0F007047704770477047BE
:100A000008B5FFF7F5FB08BD0121114B1A680A4331
:100A10001A6058680F4A02405A6018680E4A02402D
:100A20001A6018680D4A02401A6058680C4A024061
:100A30000F205A60DA6A8243DA62186B094A024070
:100A40001A635A6B8A435A6300229A607047C04601
:100A5000001002400CB8FF08FFFFF6FEFFFFFBFF8F
:100A6000FFFFC0FF2CFEFFFF00BEFEE70420714623
:100A7000084202D0EFF3098001E0EFF308804169FA
:100A800002E000BE7047000003688EB00093436828
:100A9000019383680293C3680393036904934369D2
:100AA000059383690693C36907930A4B1B680893F0
:100AB000094B1B680993094B1B680A93084B1B6879
:100AC0000B93084B1B680D93074B1B680C9300BEE0
:100AD0000EB0704728ED00E02CED00E030ED00E0B6
:0C0AE0003CED00E034ED00E038ED00E0FB
:100AEC0000000000010203040102030406070809C8
:100AFC000102030405060708090A0B0C0D0E0F1062
:100B0C0002030405060708090A0B0C0D0E0F101042
:040B1C0000127A0049
:04000005080001618D
:00000001FF
