:020000040800F2
:10000000FF1F002061010008850B0008FD0B0008A0
:1000100000000000000000000000000000000000E0
:10002000000000000000000000000000890B000834
:1000300000000000000000008D0B0008910B00087C
:10004000F90B000800000000F90B0008F90B00088C
:10005000F90B0008F90B0008F90B0008F90B000870
:1000600000000000F90B0008F90B0008F90B00086C
:10007000F90B0008F90B0008F90B0008000000005C
:10008000F90B0008F90B000800000000F90B00084C
:10009000F90B0008F90B0008F90B0008F90B000830
:1000A000F90B0008F90B0008F90B0008F90B000820
:1000B000F90B000800000000000000000000000034
:1000C000002934D00123002210B488422CD301240B
:1000D0002407A14204D2814202D209011B01F8E7A0
:1000E000E400A14204D2814202D249005B00F8E759
:1000F000884201D3401A1A434C08A04202D3001B85
:100100005C0822438C08A04202D3001B9C082243B7
:10011000CC08A04202D3001BDC082243002803D0F5
:100120001B0901D00909E3E7101C10BC7047002827
:1001300001D00020C04307B4024802A14018029039
:1001400003BDC046190000000029F0D003B5FFF739
:10015000B9FF0EBC4243891A1847C0467047C046D3
:100160000C488546002103E00B4B5B58435004319B
:100170000A480B4B42189A42F6D30A4A02E000237F
:1001800013600432084B9A42F9D300F005FD00F0E9
:10019000B1FCFEE7FF1F0020AC0C000800000020AF
:1001A00004000020040000200800002010B5041CFA
:1001B00000F080F9FA218900FFF782FF00F05AF879
:1001C0000120211C4042002200F020F8002010BD38
:1001D00008B51023054A032011680B431360FFF78D
:1001E000E5FF00F0CDFC002008BDC0460020024025
:1001F000024A1368013313607047C04604000020B0
:10020000014B18687047C0460400002070B50028F4
:1002100015DB032483082040FF248901C000261C2D
:1002200021408140114AC02594468640081C9B000D
:100230006344AD005A59B2431043585170BD032472
:100240000F23C0B203402040FF24251C084AC000F1
:1002500094468901854021408140083B9B089B00D2
:100260006344DA69AA430A43DA61E7E700E100E0A0
:1002700000ED00E00A4A431E012093420ED8C02040
:10028000084A094953600B6A00061B021B0A034314
:100290000B62002393600723002013607047C04661
:1002A000FFFFFF0010E000E000ED00E0F0B55F466A
:1002B00056464D464446F0B48B46096883B0002547
:1002C0000026002900D1CFE0724B00919C466DE0E2
:1002D0000268740091460322A2404946D24311406D
:1002E000894603213940A1408A4601924946524637
:1002F0001143012252429146C84442460160012AFC
:1003000000D88BE0C568019A2A405D46AD68A540DB
:100310002A43C26080225205174242D001215E4A20
:100320000324926934400A435B49A4008A615B4913
:10033000B20888460F21A1409200424495688D433F
:100340009021C905884200D195E05549884200D1E5
:1003500093E05449884200D193E05349884200D148
:1003600093E00521A1400C1C2C4394606246DC43C1
:100370001268F90376D4224061460A604A68B903DC
:100380006ED4224061464A608A68F90266D42240EF
:1003900061468A60CA68B9025ED4131C2340624673
:1003A000D360009B0136351CF3405DD00123AB4088
:1003B000009A1340F5D05A46576810243A1CA243BD
:1003C0009046022A84D1F208920092468244524614
:1003D0000724116A344088460F21A400A1408946B1
:1003E00041464A4691435A46884611694246A140D1
:1003F0000C1C144352461462026874009046032297
:10040000A2404146D2431140884603213940A140D1
:100410008946019241464A46114301608168019A2A
:10042000114088465946C968A140894641464A4616
:10043000114381600121A94088464268111C42464F
:1004400091438946102139400A09111CA9404A46A6
:100450000D1C1543456055E71343A0E71A4397E782
:100460001A438FE71A4387E703B03CBC904699468E
:10047000A246AB46F0BD002476E70121A1400C1C4A
:1004800072E70221A1400C1C6EE70321A1400C1C65
:100490006AE7C0460004014000100240000001402D
:1004A0000004004800080048000C00484369594017
:1004B0004161704708B500F0F7FA054B054A5B68E3
:1004C0001B061B0FD35CD840034B186008BDC04609
:1004D000001002407C0C000800000020F8B54F46D8
:1004E00046460368C0B4041CDA073AD50C20C44958
:1004F0004A680240042A00D112E14A680240082AF0
:1005000000D109E10022BF4B80251A70FFF778FE69
:10051000BB4E8046AD02BC4F06E0FFF771FE43467E
:10052000C31ABB4200D91CE133682B42F5D1B54B4D
:1005300022791A706368002B00D16BE1FFF760FE2F
:1005400080258046AE4EAD02AF4F06E0FFF758FE65
:100550004346C31ABB4200D903E133682B42F5D0AE
:1005600023689A072AD50C21A54A5068014200D178
:10057000C9E050680140082900D1C0E0E368A04DFF
:10058000002B00D111E101232A68022613432B60BE
:10059000FFF736FE071C05E0FFF732FEC31B642B96
:1005A00000D9DEE02B68964A1E42F5D0F820136889
:1005B00021698343C9000B43136023681A0739D4A8
:1005C0005A0751D4DB0612D56369012B00D1B2E082
:1005D000053300D0FCE00421894A536B8B435363FD
:1005E000F820536BA1698343C9000B435363636ACB
:1005F000002B1DD00C21824D6A680A40082A00D1C8
:1006000088E02A68022B00D117E1804B2C1C134094
:100610002B60FFF7F5FD8025061CAD0405E0FFF714
:10062000EFFD831B642B00D99BE023682B42F6D19E
:10063000002097E0236A724D002B00D196E0012341
:100640006A6A022613436B62FFF7DAFD071C05E0B6
:10065000FFF7D6FDC31B642B00D982E06B6A1E42F4
:10066000F6D023685A07ADD580218026644A490513
:10067000D369674D0B43D3612B68760033432B60FE
:10068000FFF7BEFD071C04E0FFF7BAFDC31B642B98
:1006900067D82B683342F7D00522594D02262B6AC2
:1006A000594F93432B62FFF7ABFD804605E0FFF700
:1006B000A7FD4346C31ABB4253D8514B99462B6AF8
:1006C0001E42F4D14B4605211B6AA2688B43494662
:1006D00013430B62012A00D1E7E0FFF791FD4A4B7B
:1006E000071C4D460226984604E0FFF789FDC31B10
:1006F000434536D82B6A1E42F7D1236862E7526819
:10070000D20300D53AE73E4A1268920741D5E26823
:10071000012A3ED0012025E04A68D20300D4F1E648
:10072000374A1268920300D41BE76268012A00D19D
:1007300017E7012016E00422314D0226696B0A43B7
:100740006A636A6B13436B63FFF75AFD071C6B6B9D
:100750002B4A1E4200D043E7FFF752FDC31B642B18
:10076000F5D903200CBC90469946F8BD01226B6A6E
:10077000022693436B62FFF743FD071C04E0FFF77B
:100780003FFDC31B642BECD86B6A1E42F7D1236874
:1007900068E7F8251A4821690268C900AA430A4394
:1007A00002601A0700D40BE744E701222B680226F7
:1007B00093432B60FFF724FD071C04E0FFF720FDA7
:1007C000C31B642BCDD82B681E42F7D12368F5E6F6
:1007D00004230B4D02266A6B134301226B636B6B80
:1007E00093436B63FFF70CFD071C04E0FFF708FD64
:1007F000C31B642BB5D86B6B1E42F7D1F7E6C0461E
:10080000001002400210024088130000FFFFFFFEAC
:1008100000700040FFF7F4FC802580462C4EAD02AE
:100820002C4F05E0FFF7ECFC4346C31ABB4298D8B7
:1008300033682B42F6D1236893E6274B8027134079
:100840002B60FFF7DDFCBF04804606E0FFF7D8FC15
:100850004346C31A642B00D983E72B681C4E3B42E6
:10086000F4D10F22F36A9343E26A1343F362226BDB
:10087000A16A73681143194A8024134080220B43F4
:1008800073603368520413433360FFF7B9FCA40468
:10089000051C05E0FFF7B4FC431B642B00D960E79F
:1008A00033682342F6D000205CE7FFF7A9FC094B30
:1008B000071C4E460225984605E0FFF7A1FCC31B26
:1008C000434500D94DE7336A1D42F6D0236879E6E7
:1008D0000010024088130000FFFFFFFEFFFFC2FF71
:1008E000F8B54F4646460C1C01216B4AC0B413684C
:1008F000051C0B40A3420CD213688B4323431360A7
:1009000013681940A1424ED001200CBC9046994674
:10091000F8BD03689A0706D5F02060494A6882430B
:10092000A86802434A60DB0724D55C4A6B681268FA
:10093000012B68D0022B6BD09207E5D50321574ECF
:1009400072688A4313437360FFF75AFC6B68071C95
:10095000012B63D0022B71D00C239846504B994643
:1009600004E0FFF74DFCC31B4B454FD8424673686C
:100970001A42F6D10121484A13688B43234313607E
:1009800013680B40A342BFD12B685B0706D54349D0
:10099000444B4A681340EA6813434B600320FFF757
:1009A00005FC0020B1E703689A0706D5F0203B4913
:1009B0004A688243A86802434A60DA07E5D5374AA5
:1009C0006B681268012B49D0022B24D092079BD56B
:1009D0000321324C0C2762688A4313436360FFF79C
:1009E0000FFC6B68061C012B3BD0022B46D02C4B16
:1009F000984604E0FFF704FC831B434506D8636870
:100A00001F42F7D1C0E7920398D47DE703207CE72B
:100A1000920193D478E79201DAD475E70C239846D3
:100A20001F4B994604E0FFF7EBFBC01B4845EDD890
:100A3000424673681340042BF5D19BE70C2398467C
:100A4000174B994604E0FFF7DBFBC01B4845DDD898
:100A5000424673681340082BF5D18BE79203B7D455
:100A600052E70F4B984604E0FFF7CAFB831B434550
:100A7000CCD863683B40042BF6D185E7084B9846F9
:100A800004E0FFF7BDFB801B4045BFD863683B40D7
:100A9000082BF6D178E7C046002002400010024043
:100AA00088130000FFF8FFFF0C230D4910B54A68BA
:100AB0001340082B0FD193020A481B0FC45CCB6A6A
:100AC0000F210B400849C95CD30306D50748FFF73F
:100AD000F7FA604300E0054810BD05486043FBE7B6
:100AE000001002409C0C00088C0C000800127A00D8
:100AF00000093D0010B592B0FFF76AFB0023059393
:100B00000F931093802302245B0305A80E94119386
:100B1000FFF7E4FC00282AD1072303900490012169
:100B200001A801930294FFF7DBFE00281DD180216C
:100B3000104A0903536910480B435361C0239B00BB
:100B40000593012305A90693FFF7B0FB0B4B013B6F
:100B5000002BFCD1802108488900FFF7A7FC8021E9
:100B600005484900FFF7A2FCF0E700BEFEE700BE23
:100B7000FEE7C046001002400008004840420F0057
:100B80007047C0467047C0467047C0467047C04671
:100B900008B5FFF72DFB08BD0121114B1A680A4368
:100BA0001A6058680F4A02405A6018680E4A02409C
:100BB0001A6018680D4A02401A6058680C4A0240D0
:100BC0000F205A60DA6A8243DA62186B094A0240DF
:100BD0001A635A6B8A435A6300229A607047C04670
:100BE000001002400CB8FF08FFFFF6FEFFFFFBFFFE
:100BF000FFFFC0FF2CFEFFFF00BEFEE70420714692
:100C0000084202D0EFF3098001E0EFF30880416968
:100C100002E000BE7047C04603688EB00093436890
:100C2000019383680293C368039303690493436940
:100C3000059383690693C36907930A4B1B6808935E
:100C4000094B1B680993094B1B680A93084B1B68E7
:100C50000B93084B1B680D93074B1B680C9300BE4E
:100C60000EB0704728ED00E02CED00E030ED00E024
:0C0C70003CED00E034ED00E038ED00E069
:100C7C000000000001020304010203040607080936
:100C8C000102030405060708090A0B0C0D0E0F10D0
:100C9C0002030405060708090A0B0C0D0E0F1010B1
:040CAC0000127A00B8
:04000005080001618D
:00000001FF
